:100000000C9461000C947E000C947E000C947E0095
:100010000C947E000C947E000C947E000C947E0068
:100020000C947E000C947E000C947E000C947E0058
:100030000C947E000C947E000C947E000C947E0048
:100040000C94A9010C947E000C947E000C947E000C
:100050000C947E000C947E000C947E000C947E0028
:100060000C947E000C947E00000000002400270009
:100070002A0000000000250028002B0000000000DE
:1000800023002600290004040404040404040202DA
:100090000202020203030303030301020408102007
:1000A0004080010204081020010204081020000012
:1000B0000008000201000003040700000000000027
:1000C000000011241FBECFEFD8E0DEBFCDBF11E08E
:1000D000A0E0B1E0EEE2FDE002C005900D92A0309C
:1000E000B107D9F721E0A0E0B1E001C01D92AD3029
:1000F000B207E1F70E9438020C9495060C940000B8
:10010000833081F028F4813099F08230A1F0089595
:100110008730A9F08830B9F08430D1F48091800024
:100120008F7D03C0809180008F7780938000089539
:1001300084B58F7702C084B58F7D84BD089580918A
:10014000B0008F7703C08091B0008F7D8093B000A6
:1001500008951F93CF93DF93282F30E0F901E255E4
:10016000FF4F8491F901E656FF4FD491F901EA5708
:10017000FF4FC491CC23C9F0162F81110E9480003B
:10018000EC2FF0E0EE0FFF1FEE58FF4FA591B4915A
:100190008FB7F894111105C09C91ED2FE095E923DC
:1001A00002C0EC91ED2BEC938FBFDF91CF911F91AB
:1001B0000895CF93DF9390E0FC01E656FF4F249122
:1001C000FC01EA57FF4F8491882361F190E0880F8A
:1001D000991FFC01E859FF4FC591D491FC01EE58DD
:1001E000FF4FA591B491611109C09FB7F894888120
:1001F000209582238883EC912E230BC0623061F41A
:100200009FB7F8943881822F809583238883EC915F
:100210002E2B2C939FBF06C08FB7F894E8812E2B0E
:1002200028838FBFDF91CF9108951F93CF93DF93E2
:10023000182FEB0161E00E94D900209711F460E0D3
:1002400004C0CF3FD10539F461E0812FDF91CF9118
:100250001F910C94A900E12FF0E0E255FF4FE491CB
:10026000E330F9F048F4E130B9F0E230A1F584B5BB
:10027000806284BDC8BD34C0E730E9F0E83019F1D0
:10028000E43049F580918000806280938000D093B3
:100290008B00C0938A0024C084B5806884BDC7BD2C
:1002A0001FC080918000806880938000D093890077
:1002B000C093880015C08091B00080688093B00022
:1002C000C093B3000DC08091B00080628093B000F5
:1002D000C093B40005C0C038D1050CF0B5CFAFCF86
:1002E000DF91CF911F9108953FB7F8948091050158
:1002F00090910601A0910701B091080126B5A89B35
:1003000005C02F3F19F00196A11DB11D3FBFBA2FA7
:10031000A92F982F8827820F911DA11DB11DBC0107
:10032000CD0142E0660F771F881F991F4A95D1F7CC
:10033000089561E084E00E94A90061E087E00C94E8
:10034000A90060E084E00E94A90060E087E00C94CE
:10035000A9001F920F920FB60F9211242F933F9373
:100360008F939F93AF93BF9380910101909102016E
:10037000A0910301B09104013091000123E0230F0B
:100380002D3720F40196A11DB11D05C026E8230FCD
:100390000296A11DB11D209300018093010190934D
:1003A0000201A0930301B093040180910501909193
:1003B0000601A0910701B09108010196A11DB11D90
:1003C0008093050190930601A0930701B093080163
:1003D000BF91AF919F918F913F912F910F900FBE41
:1003E0000F901F901895CF92DF92EF92FF920F938C
:1003F0001F93E82FF92F05C0015011092109310978
:1004000061F1908196239417B9F305C00150110949
:100410002109310911F1908196239413F7CFC12C52
:10042000D12CE12CF12C0AC08FEFC81AD80AE80AA7
:10043000F80A0C151D052E053F0579F080818623ED
:10044000841791F36C2D7D2D8E2D9F2D1F910F9173
:10045000FF90EF90DF90CF90089560E070E080E033
:1004600090E01F910F91FF90EF90DF90CF90089553
:10047000789484B5826084BD84B5816084BD85B57F
:10048000826085BD85B5816085BD80916E0081608B
:1004900080936E0010928100809181008260809331
:1004A0008100809181008160809381008091800033
:1004B0008160809380008091B10084608093B1005E
:1004C0008091B00081608093B00080917A00846058
:1004D00080937A0080917A00826080937A00809184
:1004E0007A00816080937A0080917A00806880939E
:1004F0007A001092C10061E084E00E94D90061E0BE
:1005000085E00E94D90061E086E00E94D90061E0A8
:1005100087E00E94D90061E08AE00E94D90061E092
:1005200083E10E94D90061E083E00E94D90060E08D
:1005300082E00E94D90062E08EE00E94D90060E073
:1005400083E00E94A90060E08AE00E94A90060E0C8
:1005500083E10E94A90060E084E00E94A90060E0BD
:1005600085E00E94A90060E086E00E94A90060E0AA
:1005700087E00E94A900C3E2D0E05CEE452E55243E
:100580005A94652C752C40E0242E40E0342E61E016
:1005900083E00E94A900CE010197F1F760E083E0BB
:1005A0000E94A900ECE9F0E06491E8E8F0E08491B1
:1005B000E82FF0E0EE0FFF1FE458FF4F8591949174
:1005C00000E412E42FE030E0462F0E94F3016115B1
:1005D00071058105910549F0DC01CB010196A11D52
:1005E000B11DBC01CD019F7003C060E070E0CB0184
:1005F0000E9471052EEA37E44BE652E40E94C904DA
:100600006B017C016093090170930A0180930B01D7
:1006100090930C01ECEBF0E08491E8EAF0E0B49008
:10062000E4E9F0E0A490AA2079F081110E94800012
:10063000EA2DF0E0EE0FFF1FE458FF4FA591B491B3
:100640008C91B82209F04EC061E08AE00E94A900B6
:1006500060E083E10E94A90020E030E040EA51E43C
:10066000C701B6010E94C40487FF03C00E9499011C
:1006700002C00E94A1016FEF70E085E00E941501A9
:100680006FEF70E086E00E9415010E9474014B013B
:100690005C0181E4C82ED12CE12CF12C0E94740164
:1006A000DC01CB0188199909AA09BB09883E93404E
:1006B000A105B10558F0F1E0CF1AD108E108F10821
:1006C00028EE820E23E0921EA11CB11CC114D1049D
:1006D000E104F10419F72114310409F458CF0E9400
:1006E000000051CF60E08AE00E94A90061E083E150
:1006F0000E94A90020E030E040EA51E4C701B601C1
:100700000E9457044B015C012AE037ED43EA5CE3A9
:100710000E9428069B01AC0160E070E0CB010E94C2
:1007200058049B01AC01C501B4010E9458044B015F
:100730005C01A701960160E070E0CB010E945704C4
:1007400020E030E0A9010E9428069B01AC01C50110
:10075000B4010E9458046B017C0120E030E0A90143
:100760000E94C40487FF17C0C701B6010E943B0561
:100770009B01AC01AFEFB0E00E941B04A30192010A
:100780000E94FC03CA01B9010E9473056B017C0140
:100790000E94990126C0C701B6010E943B059B013A
:1007A000AC01AFEFB0E00E941B0428E230E040E073
:1007B00050E00E94FC03CA01B9010E9473056B015D
:1007C0007C0120E030E04FE753E40E942306181636
:1007D00034F4C12CD12C9FE7E92E93E4F92E0E942A
:1007E000A101C701B6010E943B056B017C0185E0B8
:1007F0000E941501B60146CF052E97FB1EF400940A
:100800000E94130457FD07D00E94260407FC03D062
:100810004EF40C94130450954095309521953F4F1C
:100820004F4F5F4F089590958095709561957F4FDC
:100830008F4F9F4F08950E944804A59F900DB49F2D
:10084000900DA49F800D911D11240895A1E21A2EF0
:10085000AA1BBB1BFD010DC0AA1FBB1FEE1FFF1F64
:10086000A217B307E407F50720F0A21BB30BE40BB4
:10087000F50B661F771F881F991F1A9469F76095FB
:100880007095809590959B01AC01BD01CF010895B5
:10089000A29FB001B39FC001A39F700D811D1124C1
:1008A000911DB29F700D811D1124911D0895505806
:1008B000BB27AA270E946F040C94E9050E94DB0560
:1008C00038F00E94E20520F039F49F3F19F426F435
:1008D0000C94D8050EF4E095E7FB0C94D205E92FB3
:1008E0000E94FA0558F3BA17620773078407950741
:1008F00020F079F4A6F50C941C060EF4E0950B2E6E
:10090000BA2FA02D0B01B90190010C01CA01A00161
:100910001124FF27591B99F0593F50F4503E68F1BC
:100920001A16F040A22F232F342F4427585FF3CFFD
:10093000469537952795A795F0405395C9F77EF4CE
:100940001F16BA0B620B730B840BBAF09150A1F017
:10095000FF0FBB1F661F771F881FC2F70EC0BA0F9D
:10096000621F731F841F48F4879577956795B79525
:10097000F7959E3F08F0B0CF9395880F08F0992720
:10098000EE0F9795879508950E94AE0508F481E0D3
:1009900008950E94DD040C94E9050E94E20558F0D8
:1009A0000E94DB0540F029F45F3F29F00C94D2054A
:1009B00051110C941D060C94D8050E94FA0568F399
:1009C0009923B1F3552391F3951B550BBB27AA2708
:1009D00062177307840738F09F5F5F4F220F331F42
:1009E000441FAA1FA9F335D00E2E3AF0E0E832D00A
:1009F00091505040E695001CCAF72BD0FE2F29D00D
:100A0000660F771F881FBB1F261737074807AB07DE
:100A1000B0E809F0BB0B802DBF01FF2793585F4F53
:100A20003AF09E3F510578F00C94D2050C941D06C7
:100A30005F3FE4F3983ED4F3869577956795B79535
:100A4000F7959F5FC9F7880F911D9695879597F940
:100A50000895E1E0660F771F881FBB1F62177307B9
:100A60008407BA0720F0621B730B840BBA0BEE1FCE
:100A700088F7E09508950E9442056894B1110C949E
:100A80001D0608950E94020688F09F5798F0B92F1E
:100A90009927B751B0F0E1F0660F771F881F991FB3
:100AA0001AF0BA95C9F714C0B13091F00E941C0633
:100AB000B1E008950C941C06672F782F8827B85F43
:100AC00039F0B93FCCF3869577956795B395D9F70B
:100AD0003EF490958095709561957F4F8F4F9F4F15
:100AE0000895E89409C097FB3EF490958095709521
:100AF00061957F4F8F4F9F4F9923A9F0F92F96E96A
:100B0000BB279395F695879577956795B795F111DE
:100B1000F8CFFAF4BB0F11F460FF1BC06F5F7F4F7B
:100B20008F4F9F4F16C0882311F096E911C077238D
:100B300021F09EE8872F762F05C0662371F096E896
:100B4000862F70E060E02AF09A95660F771F881F65
:100B5000DAF7880F9695879597F90895990F000809
:100B6000550FAA0BE0E8FEEF16161706E807F9077F
:100B7000C0F012161306E407F50798F0621B730B1A
:100B8000840B950B39F40A2661F0232B242B252B9B
:100B900021F408950A2609F4A140A6958FEF811D3E
:100BA000811D089597F99F6780E870E060E00895DF
:100BB0009FEF80EC089500240A9416161706180675
:100BC0000906089500240A94121613061406050651
:100BD0000895092E0394000C11F4882352F0BB0FE2
:100BE00040F4BF2B11F460FF04C06F5F7F4F8F4F45
:100BF0009F4F089557FD9058440F551F59F05F3F80
:100C000071F04795880F97FB991F61F09F3F79F02E
:100C100087950895121613061406551FF2CF4695B0
:100C2000F1DF08C0161617061806991FF1CF869532
:100C30007105610508940895E894BB276627772716
:100C4000CB0197F908950E94AE0508F48FEF08953F
:100C50000E943B060C94E9050E94DB0538F00E94D7
:100C6000E20520F0952311F00C94D2050C94D805E0
:100C700011240C941D060E94FA0570F3959FC1F390
:100C8000950F50E0551F629FF001729FBB27F00D3A
:100C9000B11D639FAA27F00DB11DAA1F649F66278F
:100CA000B00DA11D661F829F2227B00DA11D621FDE
:100CB000739FB00DA11D621F839FA00D611D221F98
:100CC000749F3327A00D611D231F849F600D211D7C
:100CD000822F762F6A2F11249F5750409AF0F1F0FF
:100CE00088234AF0EE0FFF1FBB1F661F771F881F68
:100CF00091505040A9F79E3F510580F00C94D205C9
:100D00000C941D065F3FE4F3983ED4F386957795E7
:100D10006795B795F795E7959F5FC1F7FE2B880F0D
:0E0D2000911D9695879597F90895F894FFCF49
:00000001FF
